:100000000C948B020C94B3020C94B3020C94B302C4
:100010000C94B3020C94B3020C94B3020C94B3028C
:100020000C94B3020C94B3020C94B3020C94F4033A
:100030000C94B3020C94B3020C94B3020C94B3026C
:100040000C942A030C94B3020C94B3020C94B302E4
:100050000C94B3020C94B3020C94B3020C94B3024C
:100060000C94B3020C94B3020101FF030101F703E6
:100070004500680100006C00680005008930080236
:100080003802497868140000050038016801000052
:10009000175344001613780016131400151020008F
:1000A00015201000540A03E181867F3E186D830FEE
:1000B0000F0E0183866033186DC3198F1803C38E2A
:1000C0006033186DE330CF1803C39E603630CDE344
:1000D00060CF3006C79E7E3E30CDB360CF300CC6B9
:1000E000F6603330D9B660CF33CFCCF66061B0DB89
:1000F0001E60CF30D86CE6C061B0DB1E618F1998EE
:100100006CC6C063B19B0E330F0FB078C6FF7E1F65
:100110001B061E0F402400003FF8000000000000F6
:100120003FF80000000000003FFC0000000000005D
:100130003FFC0000C00000007FFC00004000000306
:10014000FFFFFF0040000007FFFFFF80C000000727
:10015000FFFFFFE38000000FFFFFFFF20000001F22
:10016000FFFFFFF20000001FFFFFFFF30000001F72
:10017000FFFFFFF18000001FFFFFFFF18000000F75
:10018000F87FB00100000000180010070000000018
:10019000100018000000000013CF0800000000004D
:1001A0001986083E00000000080008120000000048
:1001B000082008120000000008301812000000009B
:1001C0001C003812C000000017FFF8136000000088
:1001D00018000813E000000008000813F0000000F9
:1001E0000B2488179000000008608817900000001A
:1001F0000800881FF00000000B02080FC00000007C
:1002000009320C0FC00000000800440FC0000000BD
:10021000F8406F8FC00000018C641CCFC000000349
:100220000406307F800000060600E03F0000000C5E
:100230000201807F800020202020205369656E61AC
:1002400020546F776E00436976696C69616E206433
:100250006F776E210053686F6F742100080838BAF9
:10026000927C103844440808000000004000000060
:10027000080838383808F0503844080870F8702EEC
:100280003820505000000000240027002A00000001
:100290000000250028002B000A0A153A49676E6FF6
:1002A0007265006D560A0A504C454153452054551D
:1002B000524E204F464620004C4F57204241545446
:1002C00045525921200003053F213F1208120A1010
:1002D0000A0E1C0E0C1E0C141A14161F161E131ECA
:1002E0001E1B1E1E1F1E3F213F3A2F3A173D173F70
:1002F000213F181F02040A041F0E04040E1F0A1FC8
:100300000A0E0E1F04110E2E252E2F2A2E26292905
:10031000021F02081F08150E04040E150E15151BEA
:10032000151B040604040C04000000001700030061
:10033000031F0A1F16371A1904130A153A0003007F
:10034000000E11110E000A040A040E04003000040D
:1003500004040010001804031F111F121F101D15A4
:100360001711151F07041F17151D1F151D01011F4C
:100370001F151F17151F000A00003200040A110A7A
:100380000A0A110A040115020E11171E051E1F1577
:100390000A0E110A1F110E1F15111F05010E111D46
:1003A0001F041F111F1108100F1F041B1F10101F07
:1003B000061F1E040F0E110E1F09060E112E1F051B
:1003C0001A121509011F011F101F0F180F1F0C1FF4
:1003D0001B041B031C03191513001F110304181120
:1003E0001F000201022020200001020C121E1F1219
:1003F0000C0C12120C121F0C1A14041E05242A1EB7
:100400001F021C141D1020201D1F0814111F101E78
:10041000041E1E021C0C120C3E0A040C123E1E048A
:100420000214160A020F120E101E0E100E1E081EC7
:10043000120C1226281E322A26041E21001F00211B
:100440001E040102013F213FF6E8DBCFC3B8AEA492
:100450009B928A827B746E68625C57524E4945411A
:100460003E3A3734312E2C2927252321172B1520EE
:1004700010204C4F4144455200172B1620131400F6
:100480000A4E6F2053442063617264206F720A6EBB
:100490006F204C4F414445522E4845580A0A153AA0
:1004A00045786974001D20466C617368696E670A3F
:1004B00020206C6F616465722E2E2E0A0A444F4E06
:1004C0002754205455524E204F464621000000002C
:1004D0000023002600290004040404040404040288
:1004E00002020202020303030303030102040810D1
:1004F000204080010204081020010204081020009E
:1005000000000800020100000304070000000000D2
:1005100000000000601611241FBECFEFD8E0DEBF40
:10052000CDBF12E0A0E0B1E0E8E8F1E302C0059041
:100530000D92AE32B107D9F724E0AEE2B2E001C0CD
:100540001D92A53DB207E1F712E0CBE8D2E004C06E
:100550002197FE010E94B718CA38D107C9F70E9437
:10056000A00F0C94C2180C940000CF92DF92EF926F
:10057000FF920F931F93CF93DF936C017A018B014E
:10058000C0E0D0E0CE15DF0581F0D8016D918D017E
:10059000D601ED91FC910190F081E02DC601099505
:1005A000892B11F02196EECF7E01C701DF91CF910B
:1005B0001F910F91FF90EF90DF90CF90089570E022
:1005C000FC01E60FF71F178A158A9B01220F331FC4
:1005D000DC01A20FB31F94961C921E929397108E6B
:1005E000FB01EB5BFD4F1082FB01EA5BFD4F1082CC
:1005F000FB01E75BFD4F10821092B400089508954F
:1006000080E090E008950E94BD183FB7F894809173
:10061000410290914202A0914302B091440226B55A
:10062000A89B05C02F3F19F00196A11DB11D3FBF2A
:10063000BA2FA92F982F8827820F911DA11DB11DB8
:10064000BC01CD0142E0660F771F881F991F4A95B4
:10065000D1F708951F920F920FB60F9211242F9386
:100660003F938F939F93AF93BF9380914A02909152
:100670004B02A0914C02B0914D023091400223E018
:10068000230F2D3720F40196A11DB11D05C026E8CA
:10069000230F0296A11DB11D2093400280934A02B0
:1006A00090934B02A0934C02B0934D028091410273
:1006B00090914202A0914302B09144020196A11D83
:1006C000B11D8093410290934202A0934302B093E4
:1006D0004402BF91AF919F918F913F912F910F90C5
:1006E0000FBE0F901F901895611102C00C94DF028D
:1006F0000895DC01ED91FC910190F081E02D0994C9
:100700006115710579F0FB0101900020E9F731973F
:10071000AF01461B570BDC01ED91FC910280F38188
:10072000E02D099480E090E008958F929F92AF921F
:10073000BF92EF92FF920F931F93CF93DF93CDB7AA
:10074000DEB7A1970FB6F894DEBF0FBECDBF7C0118
:10075000FA01CB0119A2223008F42AE08E010F5DC4
:100760001F4F822E912CA12CB12CBF01A501940109
:100770000E941817F901CA01015011096A3014F4D6
:10078000605D01C0695CD8016C93232B242B252B61
:1007900061F7B801C7010E948003A1960FB6F894D3
:1007A000DEBF0FBECDBFDF91CF911F910F91FF90A4
:1007B000EF90BF90AF909F908F900895CF93DF936D
:1007C000EC0160E00E94DF0280E790E09E878D8769
:1007D0001B8A1A8A81E0898389E08E8B198E1B8E91
:1007E0001D8EDF91CF9108951F920F920FB60F9239
:1007F00011242F936F937F938F939F936091460261
:10080000662359F180912E028F5F80932E02909182
:100810004702891710F12091490281E0282720938F
:10082000490210922E0280914802882369F080913B
:10083000000193E4899F802D1124895B809300013E
:100840000E94831890934502222329F0809145024B
:100850008093B40002C080E0FBCF9F918F917F9185
:100860006F912F910F900FBE0F901F901895FC0164
:10087000643508F053C0403308F050C090A1742F85
:10088000759575957595262F062E000C330B542FF4
:1008900057709230A1F4F90184E57802E00DF11D62
:1008A0001124E25BFD4F808190E0052E02C09595FA
:1008B00087950A94E2F78095982F91700AC093303B
:1008C00041F484858170462740954170841303C0AC
:1008D00014C0911112C084E57802200D311D11243D
:1008E000F901E25BFD4F81E090E001C0880F5A956D
:1008F000EAF780959081892310C084E57802200D65
:10090000311D1124F901E25BFD4F81E090E001C04F
:10091000880F5A95EAF79081892B80830895CF92AA
:10092000DF92EF92FF920F931F93CF93DF937C019F
:10093000D62EC22EC42F002E000C110B040F111D39
:1009400047FD1A958C2F0C2E000C990B80179107E0
:100950006CF4D0E0DC1544F46D2D6D0F4C2FC70105
:100960000E943704DF5FF6CFCF5FECCFDF91CF91EE
:100970001F910F91FF90EF90DF90CF9008956F92AD
:100980007F928F929F92AF92BF92CF92DF92EF921F
:10099000FF920F931F93CF93DF93EC016A3011F412
:1009A0002885A3C06D3009F4A7C0A98483E58A1502
:1009B0000CF485C0BA848FE28B150CF480C0D88407
:1009C0008C8190E00197D89E9001D99E300D112422
:1009D000C9018A0D911DA7FC9A95181619060CF0ED
:1009E0006EC02D818B2D0B2C000C990BD29E800D8F
:1009F000911D1124181619060CF061C088A09A2CBC
:100A0000CA2CE62EF12CEC2DEA190E2E000CFF0B51
:100A10008C8190E0E817F9070CF050C00197E817B7
:100A2000F90779F0E89E9001E99E300DF89E300DAF
:100A30001124E20FF31F8E8D9F8DE80FF91F149183
:100A400001C010E06B2C7B2C272D2B19022E000CE3
:100A5000330B8D8190E0281739076CF510FF11C01A
:100A600081E0D81206C0472D6C2DCE010E943704BC
:100A70001EC00D2D2D2D462D692DCE010E948F04F7
:100A800016C089A198A1891791F088A381E0D81296
:100A900006C0472D6C2DCE010E94370407C00D2DD6
:100AA0002D2D462D692DCE010E948F0488A216950A
:100AB00073946D0CC9CFC3949D0CA5CF88A22885D3
:100AC0003C818985239F800D112489879F819923EB
:100AD00099F0082E000C990B44E550E0239F401933
:100AE00051091124481759073CF49D818A85299F93
:100AF000800D11248A87198681E090E0DF91CF91E3
:100B00001F910F91FF90EF90DF90CF90BF90AF902B
:100B10009F908F907F906F900895833081F028F49C
:100B2000813099F08230A1F008958730A9F08830A3
:100B3000B9F08430D1F4809180008F7D03C0809122
:100B400080008F7780938000089584B58F7702C0EE
:100B500084B58F7D84BD08958091B0008F7703C0E8
:100B60008091B0008F7D8093B00008951F93CF9344
:100B7000DF93282F30E0F901E150FB4F8491F90118
:100B8000E551FB4FD491F901E952FB4FC491CC23BD
:100B9000C1F0162F81110E948D05EC2FF0E0EE0FB1
:100BA000FF1FE257FD4FA591B4919FB7F894111123
:100BB00004C08C91D095D82302C0EC91DE2BDC933D
:100BC0009FBFDF91CF911F910895CF93DF9390E066
:100BD000FC01E551FB4F2491FC01E952FB4F84914C
:100BE000882361F190E0880F991FFC01EC57FD4FBD
:100BF000C591D491FC01E257FD4FA591B4916111CB
:100C000009C09FB7F8948881209582238883EC914E
:100C10002E230BC0623061F49FB7F8948881322F85
:100C2000309583238883EC912E2B2C939FBF06C095
:100C30008FB7F894E8812E2B28838FBFDF91CF9157
:100C400008951F93CF93DF93182FEB0161E00E946B
:100C5000E505209711F460E004C0CF3FD10539F4D9
:100C600061E0812FDF91CF911F910C94B605E12FA8
:100C7000F0E0E150FB4FE491E330F9F048F4E1306B
:100C8000B9F0E230A1F584B5806284BDC8BD34C03E
:100C9000E730E9F0E83019F1E43049F5809180005F
:100CA000806280938000D0938B00C0938A0024C020
:100CB00084B5806884BDC7BD1FC0809180008068F6
:100CC00080938000D0938900C093880015C08091E4
:100CD000B00080688093B000C093B3000DC08091D5
:100CE000B00080628093B000C093B40005C0C038EB
:100CF000D1050CF0B5CFAFCFDF91CF911F91089503
:100D00008E3008F08E508770806480937C008091D4
:100D10007A00806480937A0080917A0086FDFCCF0F
:100D2000809178002091790090E0922B08954F9265
:100D30005F926F927F928F929F92AF92BF92CF926B
:100D4000DF92EF92FF920F931F93CF93DF9300D028
:100D500000D01F92CDB7DEB74091CE045091CF04A2
:100D60006091D0047091D1042FB7F89480914A0219
:100D700090914B02A0914C02B0914D022FBF481BA5
:100D8000590B6A0B7B0B8091CD0490E0A0E0B0E0A2
:100D90000091C9041091CA042091CB043091CC0475
:100DA00084179507A607B70730F40115110521052B
:100DB000310509F039C3012B022B032B09F032C393
:100DC0008091650481508E3F18F5809164048130D4
:100DD000F9F4809178048F5F6091790487FD09C0F0
:100DE000082E000C990B70E06F5F7F4F0E948F18E8
:100DF000682F6093780489E794E09093D3048093FC
:100E0000D20488E48093D40483E794E00E94DE0354
:100E10008091650481508E3F70F48091630481302D
:100E200009F0D4C38CE694E09093D3048093D20469
:100E300088E48093D40480E00E94370E809174048B
:100E4000882309F4ADC0809188048111A9C08091E4
:100E5000800490918104E0918504F0918604EE0F66
:100E6000FF1FE80FF91F259134912115310541F538
:100E700020918404222331F010928604109285047C
:100E8000FC0115C01092740480917304882391F0C2
:100E900080E00E94370EE0918504F0918604EE0F09
:100EA000FF1F8091800490918104E80FF91F259124
:100EB000349106C060E083E794E00E94740370C040
:100EC000A901569547955695479520FF49C0C901F8
:100ED000A6E096958795AA95E1F78F71932F969541
:100EE0009695969590514F704230E9F040F4442326
:100EF000A1F0413059F560E00E949C0E27C04330BC
:100F0000E1F0443019F520917704289F802D1124B9
:100F1000809390049093910419C08B3008F08AE07C
:100F20008093890413C020917704289F802D112479
:100F300080938C0490938D0409C020917704289F9E
:100F4000802D112480938E0490938F04E09185046A
:100F5000F09186043196F0938604E09385049FCF48
:100F60004F734093870480917704839F802D1124D1
:100F7000809388041092980410929704109296041B
:100F800081E080938A048093490210928B048091BF
:100F9000850490918604019690938604809385043D
:100FA00080918A04882309F4F3C080918804811118
:100FB00006C060E083E794E00E947403E9C08150BA
:100FC0008093880480919804811148C020919604F0
:100FD000309197042F5F3F4FC901880F991FE0910F
:100FE0009204F0919304E80FF91F65917491862F94
:100FF000877080939904AB01E3E056954795EA9595
:10100000E1F7CA0196958795972F969596959093B7
:101010009A048F7390917704899F802D1124809377
:1010200098044170409348023093970420939604AB
:101030008091940490E02817390780F0209195045E
:10104000222339F0821B9109909397048093960490
:1010500005C060E083E794E00E94740380919804E7
:1010600081508093980480918B0421E0280F209375
:101070008B044091870430919A04340F80917F044F
:10108000380F3093750460918E04662371F070E020
:10109000822F022E000C990B0E948F1880918F04D2
:1010A000869F300D1124309375048091750490E073
:1010B000849664E270E00E948F18809375043091EA
:1010C00089043093760460918C04662381F0062EA7
:1010D000000C770B822F022E000C990B0E948F18A8
:1010E00080918D04869F300D112430937604609199
:1010F00090046623A1F0822F220F990B70E00E94CA
:101100008F18CB0162E070E00E948F18209191044B
:1011100090917604289F900D1124909376044F337C
:1011200051F0809176048A300CF089E087FD80E0F0
:101130008093760402C010927604F894E0917504CE
:10114000F0E0E85BFB4FE491E093470230917604D6
:1011500020919B0432039001112440919904420391
:10116000C001439F900D11240090780402C0880FA5
:10117000991F0A94E2F797FF02C081589F4F880F8A
:10118000892F881F990B809346028093450278949B
:101190008091D404882309F491C08C3020F43CE081
:1011A000381B398301C01982FF24F394F092A40400
:1011B0001092BC041092BD044091A1044D8319818A
:1011C000141B042F0D5F4DE2410F2EE463E08CE908
:1011D00094E00E948F045D8154505D83105D252F43
:1011E00041E0612F80E50E94DB0D2D8142E0612FFF
:1011F00083E00E94DB0DF092BC04F092BD040091EC
:10120000A10443E0E42EE00E1981101B8DE2810F52
:101210008D8353E0F52E4D816F2D8CE994E00E9473
:101220003704F39491E5F912F6CFAD81AE0DAD839D
:10123000EA2EEA9433E0F32E4E2D6F2D8CE994E0E4
:101240000E943704F394B1E5FB12F6CF0350105D12
:10125000402F612F80E00E94C30D402F612F83E556
:101260000E94C30D41E0612F83E00E94440D42E0E3
:10127000612F80E50E94440D2D8124502D8344E090
:10128000622F80E50E94440D48E06D8183E00E945A
:10129000440D84E08093A5048091A1043981381B1A
:1012A000315D3093A6048091D2049091D3040E94C2
:1012B000230D8091D40481508093D40480916A04DA
:1012C00090916B04892B09F485C041E04093BC04E4
:1012D0001092BD049091A00485E5891B8093A5041C
:1012E0001092A60460916704613009F454C030F094
:1012F00080916604653008F066C061C060E083E7F5
:1013000094E00E9474031092740451E05093A4047A
:10131000E6ECF2E0E491EF5FE093A004E7ECF2E0AA
:10132000E491EF5FE093A10488EC92E09093BB041A
:101330008093BA0410926B0410926A041092A20473
:1013400088EA89830E9497068823E1F388EB92E07C
:101350000E94230D409168045091690460E070E0A0
:101360002AE08CE994E00E94950383EA92E00E94CF
:10137000230D698162956F7070E08CE994E00E94A2
:101380004F0B88E992E00E94230D80916304813025
:1013900009F000C11FC08091BF049091C004A091CA
:1013A000C104B091C2048F709927AA27BB27089760
:1013B000A105B10510F467E009C068E707C08823FC
:1013C00049F06B5F03C0882329F06FE28CE994E059
:1013D0000E9479030E94E80C8091A20481110EC042
:1013E00088EF91E0EEE4F2E0DF019C011D922150D4
:1013F0003040E1F71092A5041092A6040E94050364
:101400006093C9047093CA048093CB049093CC0476
:101410002091C5043091C604621B730B7093C40401
:101420006093C30480E0D8C02FB7F89480914A023B
:1014300090914B02A0914C02B0914D022FBF209190
:10144000CD04820F911DA11DB11D8093CE049093F8
:10145000CF04A093D004B093D1048091BF049091A5
:10146000C004A091C104B091C2040196A11DB11D98
:101470008093BF049093C004A093C104B093C204AE
:101480001092C9041092CA041092CB041092CC049A
:101490000E9405036093C5047093C6048093C7043B
:1014A0009093C80480914F04909150042FE0289F9E
:1014B000A001299F500D11245A83498385E10E9480
:1014C0008006A981BA818A0F9B1F24E09695879593
:1014D0002A95E1F79093500480934F0420914E0495
:1014E000222309F44BC060915204262F30E040E0E3
:1014F00050E029833A834B835C83C0905304D12C02
:10150000E12CF12C40915604509157044A01A12C32
:10151000B12C20915404309155042901612C712C77
:101520008217930728F09C014817590708F49A017D
:10153000C901A0E0B0E09C01AD01241935094609BC
:10154000570969817A818B819C816C197D098E098B
:101550009F090E947318A5019401241935094609B1
:1015600057090E94E616C20ED31EE41EF51EC09255
:1015700051046C2D70E085E00E9421060E94D90E76
:1015800080916A0490916B04892B11F00E94690F7D
:1015900081E022C0B981B150B983B111D3CE60E0EE
:1015A00070E085E00E94210683B7817F846083BF5D
:1015B00083B7816083BF83B7816083BF889583B71A
:1015C0008E7F83BF83B78E7F83BFBCCE893209F005
:1015D00032CC0E94340F2FCC0F900F900F900F90B1
:1015E0000F90DF91CF911F910F91FF90EF90DF90BF
:1015F000CF90BF90AF909F908F907F906F905F90B3
:101600004F9008958F929F92AF92BF92CF92DF92A8
:10161000EF92FF926B017C010E9405034B015C017C
:10162000C114D104E104F104F1F00E940503DC01CE
:10163000CB0188199909AA09BB09883E9340A105E5
:10164000B10570F321E0C21AD108E108F10888EE73
:10165000880E83E0981EA11CB11CC114D104E104C2
:10166000F10419F7DDCFFF90EF90DF90CF90BF909E
:10167000AF909F908F900895CF93DF93BC018CE93A
:1016800094E00E948003EC0160E172E08CE994E058
:101690000E9480038C0F9D1FDF91CF910895CF9200
:1016A000DF92EF92FF920F931F93CF93DF936B0123
:1016B000770FEE08FF08F7FE1BC0EC016DE20E94F9
:1016C00079038C0144275527BA014C195D096E092D
:1016D0007F092AE0CE010E949503800F911FDF91C0
:1016E000CF911F910F91FF90EF90DF90CF900895D1
:1016F0002AE0B701A601DF91CF911F910F91FF90D2
:10170000EF90DF90CF900C9495032F923F925F92D1
:101710006F927F928F929F92AF92BF92CF92DF9201
:10172000EF92FF920F931F93CF93DF93EC01F90198
:10173000E4903196849164350CF019C10E2C000CA4
:10174000FF08062F062E000C110BF701E00FF11F0A
:101750001E161F060CF00BC140330CF008C1A82F59
:10176000C42E042E000CDD085601A80EB11C87FD06
:10177000BA941A141B040CF0FAC02E5F3F4F5701A5
:1017800097E0A90EB11CB7FE04C05701BEE0AB0E36
:10179000B11CB3E0B594A794BA95E1F747FF0AC02E
:1017A000A42FA80FAC9CC001AD9C900D1124281B48
:1017B000390B40E08A2F0A2E000C990B840F911DE3
:1017C00047FD9A95C19714F0A0E3A41BF8A067FD0C
:1017D00060E0E535F10514F0E4E5F0E09E2FCC85FE
:1017E000C427C62E062E000CDD08F601E01BF10B07
:1017F0008F014F01F7E08F229924E0E8F0E002C06A
:10180000F595E7958A94E2F77E2F17FF02C0095FEE
:101810001F4FF3E015950795FA95E1F7200F311F5B
:10182000542F577081E001C0880F5A95EAF745950B
:1018300045954595F601B4E54B02E00DF11D1124E7
:10184000AF01425B5D4FD0E02A2EAA0F3308EE2491
:10185000E394BB24ED2FF0E0E215F3050CF087C014
:10186000F9015490F1E0FF121AC0962E8A01E72F79
:101870006901991608F072C08E2E852021F0D801DA
:101880008C90882A8C92E69531F4BFEFCB1ADB0A54
:10189000F6015490E0E893940F5F1F4FEACFF110E8
:1018A0001CC0782E7094962E8A01E72F6901991634
:1018B00008F054C08E2E852021F0D8018C9087200E
:1018C0008C92E69531F4BFEFCB1ADB0AF601549007
:1018D000E0E893940F5F1F4FEACFF3E0FF1629F083
:1018E000962E8A01E72F690137C0682E6094862EF4
:1018F0008A01972E69018916D8F4E92DE52159F05E
:10190000D801EC91782C7C2670FE02C0E82B02C036
:10191000E621D801EC93969439F4BFEFCB1ADB0A99
:10192000F6015490E0E89E2E83940F5F1F4FE3CFA3
:10193000CE2514C08E2E852021F0D8018C908826CB
:101940008C92E69531F4BFEFCB1ADB0AF601549086
:10195000E0E893940F5F1F4F991660F3880F19F416
:101960004C5A5F4F81E0DF5F2A0D3B1D73CFDF9143
:10197000CF911F910F91FF90EF90DF90CF90BF908C
:10198000AF909F908F907F906F905F903F902F903F
:101990000895CF93C82FF89460E08091AB040E9423
:1019A000B6058091AC0418161CF460E00E94B605E0
:1019B000CEBD00000DB407FEFDCF8EB58091AC0406
:1019C00018161CF461E00E94B6057894CF91089532
:1019D0000F931F93CF938091A8048F5F8093A804E7
:1019E0000EE412E0C0E08C2F80640E94C90C80E8F5
:1019F0000E94C90C61E08091AB040E94B605809101
:101A0000AC0418161CF460E00E94B605F80184E5E9
:101A100091919EBD00000DB407FEFDCF9EB5815093
:101A2000B9F78091AC0418161CF461E00E94B60569
:101A3000CF5F0C5A1F4FC630B1F680E4CF911F9193
:101A40000F910C94C90C0F931F93CF93DF938C01CC
:101A5000C0E0D0E0F801EC0FFD1F6491662371F047
:101A6000E0919C04F0919D040190F081E02D8CE9BF
:101A700094E00995892B11F02196ECCFCE01DF91EE
:101A8000CF911F910F910895AF92BF92CF92DF92A5
:101A9000EF92FF920F931F93CF93DF93182F062F90
:101AA000C1E0D3E08AEFD82E9EEFE92E842F847018
:101AB000C82E842F8270B82E842F8870A82E417073
:101AC000F42E8C2F880F8F5FE80ECC2081F0402FF2
:101AD0004D0F612F6C0F8CE994E00E943704402F6A
:101AE0004C0F6D2F610F8CE994E00E943704BB20EE
:101AF00081F0402F4D1B612F6C0F8CE994E00E9408
:101B00003704402F4C1B6D2F610F8CE994E00E942D
:101B10003704AA2081F0402F4C0F612F6D1B8CE9F8
:101B200094E00E943704402F4D0F612F6C1B8CE90D
:101B300094E00E943704F1100AC0CD17CCF4E7FC02
:101B400004C0D150D394D394ED0CCF5FBACF402FC3
:101B50004C1B612F6D1B8CE994E00E943704402FD1
:101B60004D1B612F6C1B8CE994E00E943704E5CF7C
:101B7000DF91CF911F910F91FF90EF90DF90CF9069
:101B8000BF90AF9008950F931F93CF93DF93D82FFB
:101B9000162F042FC0E0C0174CF4412F4C0F6D2FAF
:101BA0008CE994E00E943704CF5FF5CFDF91CF91AD
:101BB0001F910F9108959F92AF92BF92CF92DF92A3
:101BC000EF92FF920F931F93CF93DF93F82EE62EA1
:101BD000B22E13E0120FD0E0C3E08AEFC82E0EEF52
:101BE000842F8170982EAA24A394A20E4270D42E22
:101BF000DF5F812F8B19080F992081F04C2F440F44
:101C00004A0D6E2D6C1B8D2F8F0D0E94C30D412F21
:101C10006E2D6D1B8C2F8F0D0E94C30DD1100AC02D
:101C2000DC17CCF407FD04C0C150C394C3940C0D61
:101C30001E5FDECF4C2F440F4A0D6E2D6C1B8F2D77
:101C40008D1B0E94C30D412F6E2D6D1B8F2D8C1B84
:101C50000E94C30DE5CFDF91CF911F910F91FF90AF
:101C6000EF90DF90CF90BF90AF909F900895CF926C
:101C7000DF92EF92FF920F931F93CF93DF93082F82
:101C800010E0E801C25BDB4F9DA1992309F44BC032
:101C90009EA1911148C09EA59801220F331FA90152
:101CA000425B5B4F7A01FA0134A525A5E32FF22FA1
:101CB000E90FF11DE90FF11D259134912F3FFFEF41
:101CC0003F0711F41DA22FC039ABF801EE0FFF1F23
:101CD000E85AFB4F3327220F331F05A0F6A1E02D52
:101CE000E20FF31FC590D49081111AC060E083E722
:101CF00094E00E947403F701D3AAC2AA000F111F37
:101D0000F801E05AFB4F16A215A281E08EA389E0EC
:101D10008BAF1EAEFE01E05CFF4F10823296108248
:101D20008EA58F5F8EA7DF91CF911F910F91FF90AE
:101D3000EF90DF90CF90089570E0DB01AA0FBB1FFA
:101D4000A25BBB4FD4962C91D497D5969C91D597F6
:101D5000E22FF92FE80FF11DE80FF11D25913491C5
:101D60005F9696963C932E939597F9018591949161
:101D700090917704989F802D1124625B7B4FFB012B
:101D8000EA5BFF4F8083F901A591B4914B2F50E09E
:101D9000E82FF0E04E175F0720F4F9012591349108
:101DA000832FFB01E95BFF4F989F802D11248083D7
:101DB0000895DF92EF92FF920F931F93CF93DF93DB
:101DC000CEE4D4E005E514E0EE24EA9462E08A85EE
:101DD0000E94E5052A8530E0F901E150FB4F84912E
:101DE000F901E551FB4FF490F901E952FB4FD49012
:101DF000DD2071F081110E948D05ED2DF0E0EE0FD8
:101E0000FF1FE353FB4FA591B491EC91FE2299F48F
:101E100089898F5F898B60E08A850E94E50521961C
:101E20000C171D0799F6DF91CF911F910F91FF902D
:101E3000EF90DF9008958989882389F38F3F11F40B
:101E4000198AE9CFE98AE7CFCF93DF930E94230D68
:101E5000EC0160E172E08CE994E00E9480038C0F59
:101E60009D1FDF91CF91089588EF91E0EEE4F2E0BD
:101E7000DF019C011D9221503040E1F71092A50432
:101E80001092A60485EA94E00E94230D0E94E80CBB
:101E90008CB583608CBD8DB58E7F8DBD86E292E062
:101EA000EEEFFFE309951092A20480E894E00E940F
:101EB000240F0E94E80C0E94D90E809163048130A7
:101EC00039F062E370E080E090E00E94020BF3CF13
:101ED0000895809172048F7169F584E10E948006F3
:101EE000BC01990F880B990B0E947A1726EE3FE3ED
:101EF0004EEC50E40E94DE170E9449179B0170933C
:101F0000690460936804672B91F084E08093670410
:101F1000EAE6F4E080E0419151912417350718F486
:101F20008093670408958F5F8430A9F703C08FEF13
:101F300080936704809172048F5F80937204089588
:101F4000789484B5826084BD84B5816084BD85B594
:101F5000826085BD85B5816085BD80916E008160A0
:101F600080936E0010928100809181008260809346
:101F70008100809181008160809381008091800048
:101F80008160809380008091B10084608093B10073
:101F90008091B00081608093B00080917A0084606D
:101FA00080937A0080917A00826080937A00809199
:101FB0007A00816080937A0080917A0080688093B3
:101FC0007A001092C10082E38093CD0481E090E01A
:101FD000A0E0B0E08093C9049093CA04A093CB041E
:101FE000B093CC048FEF8093BE04E0E8F7E725912F
:101FF00034912130304C09F049C0E6E9F7E7E4912B
:10200000E093A704E7E9F7E7E491E0935204E8E9F5
:10201000F7E7E491E0935304E9E9F7E785919491B8
:102020009093550480935404EBE9F7E785919491DC
:10203000909357048093560487E080937904EEE9E7
:10204000F7E7E491E0937804EFE9F7E7E491E093B0
:10205000BE04E0EAF7E78591949190936B04809336
:102060006A04E2EAF7E78591949190936D04809376
:102070006C04E4EAF7E78591949190936F04809360
:102080006E04E6EAF7E7859194912CC09CE3909367
:10209000A704109252048093530480E293E090933B
:1020A00055048093540484ED93E0909357048093F7
:1020B000560487E080937904809378048CEA9DE04D
:1020C00090936B0480936A048EED9DE090936D0471
:1020D00080936C0484E79EE090936F0480936E0479
:1020E0008CE39FE09093710480937004C1E0C093EF
:1020F0004E046FEF70E085E00E94210688E0809337
:10210000580489E08093590487E080935A0486E05C
:1021100080935B04D4E0D0935C0482E080935D0400
:1021200081E180935E040E94D90E8CE39FE090933E
:10213000690480936804D0936704C09372048BE0B1
:102140008093AA048DE08093A90480E18093AB047E
:102150008EE08093AD048FE08093AC04C093A40420
:10216000C093BC041092BD04C093A304E6ECF2E05B
:10217000E491EF5FE093A004E7ECF2E0E491EF5F1D
:10218000E093A10488EC92E09093BB048093BA049E
:10219000CFB7F89480912F02811127C0E1EEF4E0CF
:1021A0008491E5EFF4E09491E82FF0E0EE0FFF1F4B
:1021B000EC57FD4FA591B491EC91E92321F461E036
:1021C0008AE00E94B60561E08AE00E94E5058CB5D0
:1021D00080618CBD8CB580648CBD61E08DE00E9417
:1021E000E50561E08BE00E94E50580912F028F5F9D
:1021F00080932F02CFBF8CB58F7D8CBD8CB58C7F2B
:1022000081608CBD8DB581608DBD8CB58C608CBDC1
:1022100061E08091AA040E94E50561E08091A90433
:102220000E94E50561E08091AB040E94E505809184
:10223000AD0418161CF461E00E94E5058091AC0421
:1022400018161CF461E00E94E5058091AD04181693
:1022500074F460E00E94B6056AE070E080E090E00F
:102260000E94020B61E08091AD040E94B60580914E
:10227000A904082E000C990BFC01E952FB4FE491D4
:10228000F0E0EE0FFF1FE257FD4F259134913093A0
:10229000B1042093B004FC01E551FB4FE491E093BD
:1022A000B7048091AA04082E000C990BFC01E95296
:1022B000FB4FE491F0E0EE0FFF1FE257FD4F259139
:1022C00034913093AF042093AE04FC01E551FB4FF1
:1022D000E491E093B6048091AC04082E000C990BB5
:1022E000FC01E952FB4FE491F0E0EE0FFF1FE257D3
:1022F000FD4F259134913093B3042093B204FC0137
:10230000E551FB4FE491E093B8048091AB04082EB3
:10231000000C990BFC01E952FB4FE491F0E0EE0F49
:10232000FF1FE257FD4F259134913093B504209360
:10233000B404FC01E551FB4FE491E093B90481E260
:102340000E94C90C84E10E94C90C8091A70487FFF8
:1023500003C08FE78093A7048091A70480680E9440
:10236000C90C80E20E94C90C8CE00E94C90C0E943A
:10237000E80C81E08093770484E080939B0486E7F7
:1023800090E0909383048093820460E080E00E9458
:102390009C0E61E070E083E00E9421068091B10014
:1023A000887F81608093B100F89410928000109231
:1023B0008100109285001092840088E191E0909352
:1023C00089008093880080918100886080938100DB
:1023D0008091810081608093810080916F00826094
:1023E00080936F00789480916A0490916B04892B9C
:1023F00011F00E94690F80916404813019F41092E9
:1024000078041FC0809167048823C9F360E083E7E4
:1024100094E00E94DF028AE790E090938104809329
:102420008004109286041092850481E080937404E5
:1024300089E08093890410928C0410928E0410928B
:1024400090048091BE04882309F4D9C081E0809370
:10245000A4041092A3041092A20410926604809324
:10246000BC048093BD04C6E3D2E01CE00E94970642
:102470008823E1F3FE018491882319F00091A104DF
:1024800001C000E024EA30E040E060E08CE994E044
:102490000E94850B4CE0400F24E131E060E08CE9C4
:1024A00094E00E94850B1092A5041093A60486E385
:1024B00092E00E94230D8091A004982F990F890F1C
:1024C00081958D5A8093A5048091A104982F990F2E
:1024D000890F8195835D8093A6048091BF0484FF5A
:1024E00003C080EA90E002C08CE990E00E94240FD3
:1024F0008091A004982F990F890F81958D5A809310
:10250000A5048091A6048F5F8093A604809178042F
:10251000882319F088E990E002C084E990E00E94E5
:10252000240F8091A004982F990F890F81958D5ABF
:102530008093A5048091A6048F5F8093A60480E910
:1025400090E00E94240F809164048130B1F4809166
:1025500078048F5F6091790487FD09C0082E000C14
:10256000990B70E06F5F7F4F0E948F18682F609308
:10257000780483E794E00E94DE0380916304813055
:10258000B9F08091BE04482F50E060E070E0C09048
:10259000BF04D090C004E090C104F090C204C416FF
:1025A000D506E606F70608F446C38F3F09F443C391
:1025B0008FEF8093BE0460E083E794E00E94DF0227
:1025C0001092740460E083E794E00E94DF0288E8E0
:1025D00090E090938104809380041092860410927E
:1025E000850481E08093740499E0909389041092AB
:1025F0008C0410928E04109290048093660493E0F1
:10260000C92ED12C01E010E02AE0622E712C3EE1AF
:10261000832E912C84E4E82EF12C0E9497068823C7
:1026200009F402C310923F0210923E0280913C02D4
:1026300090913D02892B09F088C08091600481301F
:1026400071F48091090190910A01019718161906F9
:1026500014F084E090E090930A0180930901809146
:102660006204813069F48091090190910A01019618
:10267000853091050CF4E7C210930A01009309011B
:102680008BE191E00E943C0B85EE91E00E943C0BB7
:102690008091090190910A01019781F488E291E00B
:1026A0000E943C0B87E391E00E943C0B8DE891E097
:1026B0000E943C0B8EEC91E00E943C0B8091090142
:1026C00090910A01029781F489E291E00E943C0B0B
:1026D00086E391E00E943C0B8DE891E00E943C0B68
:1026E0008EEC91E00E943C0B8091090190910A01CF
:1026F000039781F489E291E00E943C0B87E391E02B
:102700000E943C0B8CE891E00E943C0B8EEC91E027
:102710000E943C0B8091090190910A01049781F479
:1027200089E291E00E943C0B87E391E00E943C0B20
:102730008DE891E00E943C0B8DEC91E00E943C0BF7
:1027400080916304813009F483C280913C029091AE
:102750003D020297E9F483E391E00E943C0B85EE91
:1027600091E00E943C0B84E491E00E943C0B82E5E6
:1027700091E00E943C0B88E691E00E943C0B85E7CB
:1027800091E00E943C0B80916404813009F469C29D
:1027900080913C0290913D020397E9F487E891E033
:1027A0000E943C0B86E991E00E943C0B85EE91E093
:1027B0000E943C0B86EA91E00E943C0B87EB91E083
:1027C0000E943C0B83EC91E00E943C0B80916404DE
:1027D000813009F44BC280913C0290913D020497F4
:1027E000D9F489EC91E00E943C0B85EE91E00E94C7
:1027F0003C0B69ED71E08CE994E00E9480036091EC
:102800003E0270913F028CE994E00E944F0B809150
:102810006404813009F42FC280913C0290913D0202
:102820008130910509F079C12AE732E04091070132
:1028300062E08CE994E00E94850B60913A0270910D
:102840003B028CE994E00E944F0B61EE71E08CE951
:1028500094E00E948003C0E0D0E080910501909157
:102860000601C817D90744F464EE71E08CE994E0DE
:102870000E9480032196F1CF80916004813069F439
:1028800080910701909108010A978A3091050CF018
:10289000F7C1709208016092070180916204813053
:1028A00069F480910701909108010A968F31910592
:1028B0000CF4EBC1909208018092070180913902DB
:1028C000811121C0809103019091040190933802FD
:1028D00080933702209137023091380280910301B2
:1028E000909104012817390759F40E94C016B601C7
:1028F0000E948F1801969093040180930301EACF00
:1029000081E08093390240910301440F842F880FA6
:10291000880F480F20E732E068E48CE994E00E94D9
:10292000850B0E94C0166EE170E00E948F1801971F
:1029300011F4109236028091350281110BC0809102
:10294000030190910401909334028093330281E05B
:1029500080933502A0903302B0903402C0910101FF
:10296000D09102014A2D440F842F880F880F480F01
:1029700026E632E06C2F8CE994E00E94850B2197CB
:10298000D0930201C0930101269701F58AE08A9D48
:1029900090018B9D300D11248091070190910801C9
:1029A0002817390799F480913502882379F08091AE
:1029B000050190910601019790930601809305010E
:1029C00010923502F0920201E09201018091010122
:1029D00090910201892B51F480913502882331F0C6
:1029E00010923502F0920201E092010180913602CC
:1029F00081110DC00E94C016B6010E948F18019669
:102A0000909332028093310281E0809336024091AC
:102A10003102440F842F880F880F480F2CE532E0D5
:102A200062E38CE994E00E94850B0E94C01668E185
:102A300070E00E948F18029711F410923902809171
:102A400063048130A9F540910301509104012AE00B
:102A5000249FC001259F900D1124409107015091A2
:102A600008018417950721F56091310270913202B7
:102A7000269FA001279F500D112484179507C1F0B0
:102A8000E5E5F2E0F093D304E093D20480E2809392
:102A9000D40480913A0290913B02019690933B02BC
:102AA00080933A021092390283E794E00E94DE0399
:102AB00080916304813019F5809131029091320246
:102AC0004AE0489F9001499F300D112480910701F1
:102AD000909108012817390791F486E492E09093C9
:102AE000D3048093D20480E28093D40480910501C2
:102AF00090910601019790930601809305018091C2
:102B0000050190910601892B09F08EC0E5E0F0E007
:102B1000F0933D02E0933C0287C0059709F084C022
:102B200060913A0270913B0280913E0290913F0287
:102B30008617970724F0809130028823B1F07093B4
:102B40003F0260933E0280E090E00E94D81681E050
:102B50008093300286EE91E00E943C0B85EE91E07E
:102B60000E943C0B86EF91E006C086EE91E00E9449
:102B70003C0B85EE91E00E943C0B63E072E08CE937
:102B800094E00E94800320903A0230903B02032C94
:102B9000000C4408550857FE0EC06DE28CE994E025
:102BA0000E94790344275527BA0142195309640941
:102BB00075092AE003C02AE0B201A1018CE994E082
:102BC0000E94950360E172E08CE994E00E9480032A
:102BD00085EE91E00E943C0B83E192E00E943C0B69
:102BE0008BE192E00E943C0B80916304813009F4F8
:102BF00051C080916404813009F457C084E190E0B1
:102C00009093080180930701E2E0F0E0F093040163
:102C1000E0930301109239021092360283E090E0B3
:102C20009093060180930501E0E0F0E0309709F40D
:102C3000F4CC0995EFCC80916504813009F016CC75
:102C40000E94340F13CC90930A018093090118CD90
:102C50008091090190910A0190933D0280933C027A
:102C600074CD10923D0210923C0292CD10923D0222
:102C700010923C02B0CD10923D0210923C02CCCD9D
:102C8000909308018093070108CE909308018093E8
:102C9000070114CE10923D0210923C0210923B02AA
:102CA00010923A0210923002A4CF10933D0200938A
:102CB0003C0210923B0210923A02109230029ECFD8
:102CC00010929F0410929E0483E191E090939D04E2
:102CD00080939C0480E090E00E94D01690E0909356
:102CE0003F0280933E0208958F929F92AF92BF92CF
:102CF000CF92DF92EF92FF92CF93DF93EC01688146
:102D000079818A819B81611571058105910521F485
:102D100064E279ED8BE597E02DE133EF41E050E09F
:102D20000E94E61649015A019B01AC01A7EAB1E4F1
:102D30000E9405176B017C01ACEEB4EFA501940174
:102D40000E941317DC01CB018C0D9D1DAE1DBF1D14
:102D5000B7FF03C00197A109B04888839983AA836C
:102D6000BB839F77DF91CF91FF90EF90DF90CF9063
:102D7000BF90AF909F908F9008950E947416089511
:102D80008BE091E00E9474160895A0E0B0E080937B
:102D90000B0190930C01A0930D01B0930E010895C7
:102DA000F999FECF92BD81BDF89A992780B5089513
:102DB000262FF999FECF1FBA92BD81BD20BD0FB657
:102DC000F894FA9AF99A0FBE01960895052E97FB8A
:102DD0001EF400940E94FD1657FD07D00E9418179C
:102DE00007FC03D04EF40C94FD1650954095309599
:102DF00021953F4F4F4F5F4F089590958095709567
:102E000061957F4F8F4F9F4F08950E943A17A59F5E
:102E1000900DB49F900DA49F800D911D11240895D5
:102E2000B7FF0C9405170E940517821B930B08959A
:102E3000A1E21A2EAA1BBB1BFD010DC0AA1FBB1FBE
:102E4000EE1FFF1FA217B307E407F50720F0A21B30
:102E5000B30BE40BF50B661F771F881F991F1A949D
:102E600069F760957095809590959B01AC01BD01C7
:102E7000CF010895A29FB001B39FC001A39F700D21
:102E8000811D1124911DB29F700D811D1124911D72
:102E900008950E94BD1788F09F5798F0B92F992781
:102EA000B751B0F0E1F0660F771F881F991F1AF035
:102EB000BA95C9F714C0B13091F00E94D717B1E0AC
:102EC00008950C94D717672F782F8827B85F39F0AB
:102ED000B93FCCF3869577956795B395D9F73EF4CE
:102EE00090958095709561957F4F8F4F9F4F089576
:102EF000E89409C097FB3EF4909580957095619594
:102F00007F4F8F4F9F4F9923A9F0F92F96E9BB2749
:102F10009395F695879577956795B795F111F8CFC5
:102F2000FAF4BB0F11F460FF1BC06F5F7F4F8F4F30
:102F30009F4F16C0882311F096E911C0772321F026
:102F40009EE8872F762F05C0662371F096E8862FBE
:102F500070E060E02AF09A95660F771F881FDAF715
:102F6000880F9695879597F9089557FD9058440FC7
:102F7000551F59F05F3F71F04795880F97FB991FD8
:102F800061F09F3F79F08795089512161306140695
:102F9000551FF2CF4695F1DF08C016161706180622
:102FA000991FF1CF86957105610508940895E894FD
:102FB000BB2766277727CB0197F908950E94F11761
:102FC0000C9462180E94541838F00E945B1820F08C
:102FD000952311F00C944B180C94511811240C9457
:102FE000D8170E94B51770F3959FC1F3950F50E065
:102FF000551F629FF001729FBB27F00DB11D639FAB
:10300000AA27F00DB11DAA1F649F6627B00DA11D50
:10301000661F829F2227B00DA11D621F739FB00DF6
:10302000A11D621F839FA00D611D221F749F332766
:10303000A00D611D231F849F600D211D822F762FFF
:103040006A2F11249F5750409AF0F1F088234AF0DC
:10305000EE0FFF1FBB1F661F771F881F9150504048
:10306000A9F79E3F510580F00C944B180C94D8178B
:103070005F3FE4F3983ED4F3869577956795B795CF
:10308000F795E7959F5FC1F7FE2B880F911D9695E9
:10309000879597F9089597F99F6780E870E060E059
:1030A00008959FEF80EC089500240A9416161706E1
:1030B00018060906089500240A9412161306140629
:1030C00005060895092E0394000C11F4882352F08C
:1030D000BB0F40F4BF2B11F460FF04C06F5F7F4F44
:1030E0008F4F9F4F0895DB018F939F930E94051789
:1030F000BF91AF91A29F800D911DA39F900DB29F94
:10310000900D11240895991B79E004C0991F96171A
:1031100008F0961B881F7A95C9F78095089597FB4C
:10312000072E16F4009407D077FD09D00E94A3184B
:1031300007FC05D03EF4909581959F4F08957095BA
:1031400061957F4F0895AA1BBB1B51E107C0AA1FC1
:10315000BB1FA617B70710F0A61BB70B881F991F38
:103160005A95A9F780959095BC01CD010895EE0F71
:10317000FF1F0590F491E02D099481E090E0F89410
:083180000C94C218F894FFCF73
:1031880001440002000300140001000100000000D7
:10319800000000BF04B5020003FF02202020202009
:1031A8002020204D656E750020204E6577204761F0
:1031B8006D65002020202020496E73747275637439
:1031C800696F6E00204B696C6C2062616E64697473
:1031D800730020446F6E2774206B696C6C206369E0
:1031E80076696C69616E7300204561726E20706F3C
:1031F800696E74730020446F6E27742067657420AD
:103208006B696C6C656400202020202020204372AC
:1032180065646974730020202020205369656E61FD
:1032280020546F776E002050617472796B204B7553
:1032380063696E736B690020274B7563696E6961FA
:103248006B270020323031390020202020202054E4
:103258006F702053636F7265002053636F72653A15
:1032680000202000030020202020202047616D65D9
:10327800204F76657200204E6577207265636F7205
:1032880064210020596F75722073636F72653A006C
:103298000D0A0020412D4D656E750020422D5265A6
:0E32A8007374617274004C4F41444552000033
:00000001FF
